{
  "_format": "hh-sol-artifact-1",
  "contractName": "StakingRewards",
  "sourceName": "src/StakingRewards.sol",
  "abi": [
    {
      "inputs": [
        {
          "internalType": "address",
          "name": "_rewardsToken",
          "type": "address"
        },
        {
          "internalType": "address",
          "name": "_stakingToken",
          "type": "address"
        }
      ],
      "stateMutability": "nonpayable",
      "type": "constructor"
    },
    {
      "inputs": [
        {
          "internalType": "address",
          "name": "owner",
          "type": "address"
        }
      ],
      "name": "OwnableInvalidOwner",
      "type": "error"
    },
    {
      "inputs": [
        {
          "internalType": "address",
          "name": "account",
          "type": "address"
        }
      ],
      "name": "OwnableUnauthorizedAccount",
      "type": "error"
    },
    {
      "inputs": [],
      "name": "ReentrancyGuardReentrantCall",
      "type": "error"
    },
    {
      "inputs": [
        {
          "internalType": "address",
          "name": "token",
          "type": "address"
        }
      ],
      "name": "SafeERC20FailedOperation",
      "type": "error"
    },
    {
      "anonymous": false,
      "inputs": [
        {
          "indexed": true,
          "internalType": "address",
          "name": "previousOwner",
          "type": "address"
        },
        {
          "indexed": true,
          "internalType": "address",
          "name": "newOwner",
          "type": "address"
        }
      ],
      "name": "OwnershipTransferred",
      "type": "event"
    },
    {
      "anonymous": false,
      "inputs": [
        {
          "indexed": false,
          "internalType": "address",
          "name": "token",
          "type": "address"
        },
        {
          "indexed": false,
          "internalType": "uint256",
          "name": "amount",
          "type": "uint256"
        }
      ],
      "name": "Recovered",
      "type": "event"
    },
    {
      "anonymous": false,
      "inputs": [
        {
          "indexed": false,
          "internalType": "uint256",
          "name": "reward",
          "type": "uint256"
        }
      ],
      "name": "RewardAdded",
      "type": "event"
    },
    {
      "anonymous": false,
      "inputs": [
        {
          "indexed": true,
          "internalType": "address",
          "name": "user",
          "type": "address"
        },
        {
          "indexed": false,
          "internalType": "uint256",
          "name": "reward",
          "type": "uint256"
        }
      ],
      "name": "RewardPaid",
      "type": "event"
    },
    {
      "anonymous": false,
      "inputs": [
        {
          "indexed": false,
          "internalType": "uint256",
          "name": "newDuration",
          "type": "uint256"
        }
      ],
      "name": "RewardsDurationUpdated",
      "type": "event"
    },
    {
      "anonymous": false,
      "inputs": [
        {
          "indexed": true,
          "internalType": "address",
          "name": "user",
          "type": "address"
        },
        {
          "indexed": false,
          "internalType": "uint256",
          "name": "amount",
          "type": "uint256"
        }
      ],
      "name": "Staked",
      "type": "event"
    },
    {
      "anonymous": false,
      "inputs": [
        {
          "indexed": true,
          "internalType": "address",
          "name": "user",
          "type": "address"
        },
        {
          "indexed": false,
          "internalType": "uint256",
          "name": "amount",
          "type": "uint256"
        }
      ],
      "name": "Withdrawn",
      "type": "event"
    },
    {
      "inputs": [
        {
          "internalType": "address",
          "name": "account",
          "type": "address"
        }
      ],
      "name": "balanceOf",
      "outputs": [
        {
          "internalType": "uint256",
          "name": "",
          "type": "uint256"
        }
      ],
      "stateMutability": "view",
      "type": "function"
    },
    {
      "inputs": [
        {
          "internalType": "address",
          "name": "account",
          "type": "address"
        }
      ],
      "name": "earned",
      "outputs": [
        {
          "internalType": "uint256",
          "name": "",
          "type": "uint256"
        }
      ],
      "stateMutability": "view",
      "type": "function"
    },
    {
      "inputs": [],
      "name": "exit",
      "outputs": [],
      "stateMutability": "nonpayable",
      "type": "function"
    },
    {
      "inputs": [],
      "name": "getReward",
      "outputs": [],
      "stateMutability": "nonpayable",
      "type": "function"
    },
    {
      "inputs": [],
      "name": "getRewardForDuration",
      "outputs": [
        {
          "internalType": "uint256",
          "name": "",
          "type": "uint256"
        }
      ],
      "stateMutability": "view",
      "type": "function"
    },
    {
      "inputs": [],
      "name": "lastTimeRewardApplicable",
      "outputs": [
        {
          "internalType": "uint256",
          "name": "",
          "type": "uint256"
        }
      ],
      "stateMutability": "view",
      "type": "function"
    },
    {
      "inputs": [],
      "name": "lastUpdateTime",
      "outputs": [
        {
          "internalType": "uint256",
          "name": "",
          "type": "uint256"
        }
      ],
      "stateMutability": "view",
      "type": "function"
    },
    {
      "inputs": [
        {
          "internalType": "uint256",
          "name": "reward",
          "type": "uint256"
        }
      ],
      "name": "notifyRewardAmount",
      "outputs": [],
      "stateMutability": "nonpayable",
      "type": "function"
    },
    {
      "inputs": [],
      "name": "owner",
      "outputs": [
        {
          "internalType": "address",
          "name": "",
          "type": "address"
        }
      ],
      "stateMutability": "view",
      "type": "function"
    },
    {
      "inputs": [],
      "name": "periodFinish",
      "outputs": [
        {
          "internalType": "uint256",
          "name": "",
          "type": "uint256"
        }
      ],
      "stateMutability": "view",
      "type": "function"
    },
    {
      "inputs": [
        {
          "internalType": "address",
          "name": "tokenAddress",
          "type": "address"
        },
        {
          "internalType": "uint256",
          "name": "tokenAmount",
          "type": "uint256"
        }
      ],
      "name": "recoverERC20",
      "outputs": [],
      "stateMutability": "nonpayable",
      "type": "function"
    },
    {
      "inputs": [],
      "name": "renounceOwnership",
      "outputs": [],
      "stateMutability": "nonpayable",
      "type": "function"
    },
    {
      "inputs": [],
      "name": "rewardPerToken",
      "outputs": [
        {
          "internalType": "uint256",
          "name": "",
          "type": "uint256"
        }
      ],
      "stateMutability": "view",
      "type": "function"
    },
    {
      "inputs": [],
      "name": "rewardPerTokenStored",
      "outputs": [
        {
          "internalType": "uint256",
          "name": "",
          "type": "uint256"
        }
      ],
      "stateMutability": "view",
      "type": "function"
    },
    {
      "inputs": [],
      "name": "rewardRate",
      "outputs": [
        {
          "internalType": "uint256",
          "name": "",
          "type": "uint256"
        }
      ],
      "stateMutability": "view",
      "type": "function"
    },
    {
      "inputs": [
        {
          "internalType": "address",
          "name": "",
          "type": "address"
        }
      ],
      "name": "rewards",
      "outputs": [
        {
          "internalType": "uint256",
          "name": "",
          "type": "uint256"
        }
      ],
      "stateMutability": "view",
      "type": "function"
    },
    {
      "inputs": [],
      "name": "rewardsDuration",
      "outputs": [
        {
          "internalType": "uint256",
          "name": "",
          "type": "uint256"
        }
      ],
      "stateMutability": "view",
      "type": "function"
    },
    {
      "inputs": [],
      "name": "rewardsToken",
      "outputs": [
        {
          "internalType": "contract IERC20",
          "name": "",
          "type": "address"
        }
      ],
      "stateMutability": "view",
      "type": "function"
    },
    {
      "inputs": [
        {
          "internalType": "uint256",
          "name": "_rewardsDuration",
          "type": "uint256"
        }
      ],
      "name": "setRewardsDuration",
      "outputs": [],
      "stateMutability": "nonpayable",
      "type": "function"
    },
    {
      "inputs": [
        {
          "internalType": "uint256",
          "name": "amount",
          "type": "uint256"
        }
      ],
      "name": "stake",
      "outputs": [],
      "stateMutability": "nonpayable",
      "type": "function"
    },
    {
      "inputs": [],
      "name": "stakingToken",
      "outputs": [
        {
          "internalType": "contract IERC20",
          "name": "",
          "type": "address"
        }
      ],
      "stateMutability": "view",
      "type": "function"
    },
    {
      "inputs": [],
      "name": "totalSupply",
      "outputs": [
        {
          "internalType": "uint256",
          "name": "",
          "type": "uint256"
        }
      ],
      "stateMutability": "view",
      "type": "function"
    },
    {
      "inputs": [
        {
          "internalType": "address",
          "name": "newOwner",
          "type": "address"
        }
      ],
      "name": "transferOwnership",
      "outputs": [],
      "stateMutability": "nonpayable",
      "type": "function"
    },
    {
      "inputs": [
        {
          "internalType": "address",
          "name": "",
          "type": "address"
        }
      ],
      "name": "userRewardPerTokenPaid",
      "outputs": [
        {
          "internalType": "uint256",
          "name": "",
          "type": "uint256"
        }
      ],
      "stateMutability": "view",
      "type": "function"
    },
    {
      "inputs": [
        {
          "internalType": "uint256",
          "name": "amount",
          "type": "uint256"
        }
      ],
      "name": "withdraw",
      "outputs": [],
      "stateMutability": "nonpayable",
      "type": "function"
    }
  ],
  "bytecode": "0x608060405262093a8060065534801561001757600080fd5b50604051610fc9380380610fc983398101604081905261003691610107565b338061005c57604051631e4fbdf760e01b81526000600482015260240160405180910390fd5b6100658161009b565b5060018055600280546001600160a01b039384166001600160a01b0319918216179091556003805492909316911617905561013a565b600080546001600160a01b038381166001600160a01b0319831681178455604051919092169283917f8be0079c531659141344cd1fd0a4f28419497f9722a3daafe3b4186f6b6457e09190a35050565b80516001600160a01b038116811461010257600080fd5b919050565b6000806040838503121561011a57600080fd5b610123836100eb565b9150610131602084016100eb565b90509250929050565b610e80806101496000396000f3fe608060405234801561001057600080fd5b50600436106101725760003560e01c806380faa57d116100de578063cc1a378f11610097578063df136d6511610071578063df136d6514610301578063e9fad8ee1461030a578063ebe2b12b14610312578063f2fde38b1461031b57600080fd5b8063cc1a378f146102d3578063cd3daf9d146102e6578063d1af0c7d146102ee57600080fd5b806380faa57d1461026b5780638980f11f146102735780638b876347146102865780638da5cb5b146102a6578063a694fc3a146102b7578063c8f33c91146102ca57600080fd5b80633c6b16ab116101305780633c6b16ab146101eb5780633d18b912146101fe57806370a0823114610206578063715018a61461022f57806372f702f3146102375780637b0a47ee1461026257600080fd5b80628cc262146101775780630700037d1461019d57806318160ddd146101bd5780631c1f78eb146101c55780632e1a7d4d146101cd578063386a9525146101e2575b600080fd5b61018a610185366004610d57565b61032e565b6040519081526020015b60405180910390f35b61018a6101ab366004610d57565b600a6020526000908152604090205481565b600b5461018a565b61018a6103ab565b6101e06101db366004610d79565b6103c2565b005b61018a60065481565b6101e06101f9366004610d79565b610503565b6101e06106e2565b61018a610214366004610d57565b6001600160a01b03166000908152600c602052604090205490565b6101e06107c7565b60035461024a906001600160a01b031681565b6040516001600160a01b039091168152602001610194565b61018a60055481565b61018a6107d9565b6101e0610281366004610d92565b6107f0565b61018a610294366004610d57565b60096020526000908152604090205481565b6000546001600160a01b031661024a565b6101e06102c5366004610d79565b6108ba565b61018a60075481565b6101e06102e1366004610d79565b6109e3565b61018a610ac3565b60025461024a906001600160a01b031681565b61018a60085481565b6101e0610b24565b61018a60045481565b6101e0610329366004610d57565b610b45565b6001600160a01b0381166000908152600a60209081526040808320546009909252822054670de0b6b3a764000090610364610ac3565b61036e9190610dd2565b6001600160a01b0385166000908152600c60205260409020546103919190610de5565b61039b9190610dfc565b6103a59190610e1e565b92915050565b60006006546005546103bd9190610de5565b905090565b6103ca610b80565b336103d3610ac3565b6008556103de6107d9565b6007556001600160a01b03811615610425576103f98161032e565b6001600160a01b0382166000908152600a60209081526040808320939093556008546009909152919020555b6000821161046e5760405162461bcd60e51b8152602060048201526011602482015270043616e6e6f74207769746864726177203607c1b60448201526064015b60405180910390fd5b81600b60008282546104809190610dd2565b9091555050336000908152600c6020526040812080548492906104a4908490610dd2565b90915550506003546104c0906001600160a01b03163384610baa565b60405182815233907f7084f5476618d8e60b11ef0d7d3f06914655adb8793e28ff7f018d4c76d505d5906020015b60405180910390a25061050060018055565b50565b61050b610c0e565b6000610515610ac3565b6008556105206107d9565b6007556001600160a01b038116156105675761053b8161032e565b6001600160a01b0382166000908152600a60209081526040808320939093556008546009909152919020555b60045442106105855760065461057d9083610dfc565b6005556105c7565b6000426004546105959190610dd2565b90506000600554826105a79190610de5565b6006549091506105b78286610e1e565b6105c19190610dfc565b60055550505b6002546040516370a0823160e01b81523060048201526000916001600160a01b0316906370a0823190602401602060405180830381865afa158015610610573d6000803e3d6000fd5b505050506040513d601f19601f820116820180604052508101906106349190610e31565b9050600654816106449190610dfc565b60055411156106955760405162461bcd60e51b815260206004820152601860248201527f50726f76696465642072657761726420746f6f206869676800000000000000006044820152606401610465565b4260078190556006546106a791610e1e565b6004556040518381527fde88a922e0d3b88b24e9623efeb464919c6bf9f66857a65e2bfcf2ce87a9433d9060200160405180910390a1505050565b6106ea610b80565b336106f3610ac3565b6008556106fe6107d9565b6007556001600160a01b03811615610745576107198161032e565b6001600160a01b0382166000908152600a60209081526040808320939093556008546009909152919020555b336000908152600a602052604090205480156107ba57336000818152600a6020526040812055600254610784916001600160a01b039091169083610baa565b60405181815233907fe2403640ba68fed3a2f88b7557551d1993f84b99bb10ff833f0cf8db0c5e04869060200160405180910390a25b50506107c560018055565b565b6107cf610c0e565b6107c56000610c3b565b600060045442106107eb575060045490565b504290565b6107f8610c0e565b6003546001600160a01b03908116908316036108605760405162461bcd60e51b815260206004820152602160248201527f43616e6e6f7420776974686472617720746865207374616b696e6720746f6b656044820152603760f91b6064820152608401610465565b6108746001600160a01b0383163383610baa565b604080516001600160a01b0384168152602081018390527f8c1256b8896378cd5044f80c202f9772b9d77dc85c8a6eb51967210b09bfaa28910160405180910390a15050565b6108c2610b80565b336108cb610ac3565b6008556108d66107d9565b6007556001600160a01b0381161561091d576108f18161032e565b6001600160a01b0382166000908152600a60209081526040808320939093556008546009909152919020555b6000821161095e5760405162461bcd60e51b815260206004820152600e60248201526d043616e6e6f74207374616b6520360941b6044820152606401610465565b81600b60008282546109709190610e1e565b9091555050336000908152600c602052604081208054849290610994908490610e1e565b90915550506003546109b1906001600160a01b0316333085610c8b565b60405182815233907f9e71bc8eea02a63969f509818f2dafb9254532904319f9dbda79b67bd34a5f3d906020016104ee565b6109eb610c0e565b6004544211610a885760405162461bcd60e51b815260206004820152605860248201527f50726576696f7573207265776172647320706572696f64206d7573742062652060448201527f636f6d706c657465206265666f7265206368616e67696e67207468652064757260648201527f6174696f6e20666f7220746865206e657720706572696f640000000000000000608482015260a401610465565b60068190556040518181527ffb46ca5a5e06d4540d6387b930a7c978bce0db5f449ec6b3f5d07c6e1d44f2d39060200160405180910390a150565b6000600b54600003610ad6575060085490565b600b54600754610ae46107d9565b610aee9190610dd2565b600554610afb9190610de5565b610b0d90670de0b6b3a7640000610de5565b610b179190610dfc565b6008546103bd9190610e1e565b336000908152600c6020526040902054610b3d906103c2565b6107c56106e2565b610b4d610c0e565b6001600160a01b038116610b7757604051631e4fbdf760e01b815260006004820152602401610465565b61050081610c3b565b600260015403610ba357604051633ee5aeb560e01b815260040160405180910390fd5b6002600155565b6040516001600160a01b03838116602483015260448201839052610c0991859182169063a9059cbb906064015b604051602081830303815290604052915060e01b6020820180516001600160e01b038381831617835250505050610cca565b505050565b6000546001600160a01b031633146107c55760405163118cdaa760e01b8152336004820152602401610465565b600080546001600160a01b038381166001600160a01b0319831681178455604051919092169283917f8be0079c531659141344cd1fd0a4f28419497f9722a3daafe3b4186f6b6457e09190a35050565b6040516001600160a01b038481166024830152838116604483015260648201839052610cc49186918216906323b872dd90608401610bd7565b50505050565b600080602060008451602086016000885af180610ced576040513d6000823e3d81fd5b50506000513d91508115610d05578060011415610d12565b6001600160a01b0384163b155b15610cc457604051635274afe760e01b81526001600160a01b0385166004820152602401610465565b80356001600160a01b0381168114610d5257600080fd5b919050565b600060208284031215610d6957600080fd5b610d7282610d3b565b9392505050565b600060208284031215610d8b57600080fd5b5035919050565b60008060408385031215610da557600080fd5b610dae83610d3b565b946020939093013593505050565b634e487b7160e01b600052601160045260246000fd5b818103818111156103a5576103a5610dbc565b80820281158282048414176103a5576103a5610dbc565b600082610e1957634e487b7160e01b600052601260045260246000fd5b500490565b808201808211156103a5576103a5610dbc565b600060208284031215610e4357600080fd5b505191905056fea26469706673582212200b80095d0868d6c2aa69c92649f3274e67b088ad132e8ef55aedf94c11c38eb764736f6c634300081c0033",
  "linkReferences": {},
  "deployedLinkReferences": {}
}