{
  "_format": "hh-sol-artifact-1",
  "contractName": "UOS",
  "sourceName": "src/UOS.sol",
  "abi": [
    {
      "inputs": [],
      "stateMutability": "nonpayable",
      "type": "constructor"
    },
    {
      "inputs": [],
      "name": "DoubleClaim",
      "type": "error"
    },
    {
      "inputs": [
        {
          "internalType": "address",
          "name": "spender",
          "type": "address"
        },
        {
          "internalType": "uint256",
          "name": "allowance",
          "type": "uint256"
        },
        {
          "internalType": "uint256",
          "name": "needed",
          "type": "uint256"
        }
      ],
      "name": "ERC20InsufficientAllowance",
      "type": "error"
    },
    {
      "inputs": [
        {
          "internalType": "address",
          "name": "sender",
          "type": "address"
        },
        {
          "internalType": "uint256",
          "name": "balance",
          "type": "uint256"
        },
        {
          "internalType": "uint256",
          "name": "needed",
          "type": "uint256"
        }
      ],
      "name": "ERC20InsufficientBalance",
      "type": "error"
    },
    {
      "inputs": [
        {
          "internalType": "address",
          "name": "approver",
          "type": "address"
        }
      ],
      "name": "ERC20InvalidApprover",
      "type": "error"
    },
    {
      "inputs": [
        {
          "internalType": "address",
          "name": "receiver",
          "type": "address"
        }
      ],
      "name": "ERC20InvalidReceiver",
      "type": "error"
    },
    {
      "inputs": [
        {
          "internalType": "address",
          "name": "sender",
          "type": "address"
        }
      ],
      "name": "ERC20InvalidSender",
      "type": "error"
    },
    {
      "inputs": [
        {
          "internalType": "address",
          "name": "spender",
          "type": "address"
        }
      ],
      "name": "ERC20InvalidSpender",
      "type": "error"
    },
    {
      "inputs": [],
      "name": "InvalidProof",
      "type": "error"
    },
    {
      "inputs": [
        {
          "internalType": "address",
          "name": "owner",
          "type": "address"
        }
      ],
      "name": "OwnableInvalidOwner",
      "type": "error"
    },
    {
      "inputs": [
        {
          "internalType": "address",
          "name": "account",
          "type": "address"
        }
      ],
      "name": "OwnableUnauthorizedAccount",
      "type": "error"
    },
    {
      "anonymous": false,
      "inputs": [
        {
          "indexed": true,
          "internalType": "address",
          "name": "owner",
          "type": "address"
        },
        {
          "indexed": true,
          "internalType": "address",
          "name": "spender",
          "type": "address"
        },
        {
          "indexed": false,
          "internalType": "uint256",
          "name": "value",
          "type": "uint256"
        }
      ],
      "name": "Approval",
      "type": "event"
    },
    {
      "anonymous": false,
      "inputs": [
        {
          "indexed": true,
          "internalType": "bytes32",
          "name": "root",
          "type": "bytes32"
        }
      ],
      "name": "MerkleRootSet",
      "type": "event"
    },
    {
      "anonymous": false,
      "inputs": [
        {
          "indexed": true,
          "internalType": "address",
          "name": "previousOwner",
          "type": "address"
        },
        {
          "indexed": true,
          "internalType": "address",
          "name": "newOwner",
          "type": "address"
        }
      ],
      "name": "OwnershipTransferred",
      "type": "event"
    },
    {
      "anonymous": false,
      "inputs": [
        {
          "indexed": true,
          "internalType": "address",
          "name": "from",
          "type": "address"
        },
        {
          "indexed": true,
          "internalType": "address",
          "name": "to",
          "type": "address"
        },
        {
          "indexed": false,
          "internalType": "uint256",
          "name": "value",
          "type": "uint256"
        }
      ],
      "name": "Transfer",
      "type": "event"
    },
    {
      "inputs": [],
      "name": "MERKLE_ROOT",
      "outputs": [
        {
          "internalType": "bytes32",
          "name": "",
          "type": "bytes32"
        }
      ],
      "stateMutability": "view",
      "type": "function"
    },
    {
      "inputs": [
        {
          "internalType": "address",
          "name": "owner",
          "type": "address"
        },
        {
          "internalType": "address",
          "name": "spender",
          "type": "address"
        }
      ],
      "name": "allowance",
      "outputs": [
        {
          "internalType": "uint256",
          "name": "",
          "type": "uint256"
        }
      ],
      "stateMutability": "view",
      "type": "function"
    },
    {
      "inputs": [
        {
          "internalType": "address",
          "name": "spender",
          "type": "address"
        },
        {
          "internalType": "uint256",
          "name": "value",
          "type": "uint256"
        }
      ],
      "name": "approve",
      "outputs": [
        {
          "internalType": "bool",
          "name": "",
          "type": "bool"
        }
      ],
      "stateMutability": "nonpayable",
      "type": "function"
    },
    {
      "inputs": [
        {
          "internalType": "address",
          "name": "account",
          "type": "address"
        }
      ],
      "name": "balanceOf",
      "outputs": [
        {
          "internalType": "uint256",
          "name": "",
          "type": "uint256"
        }
      ],
      "stateMutability": "view",
      "type": "function"
    },
    {
      "inputs": [
        {
          "internalType": "address",
          "name": "account",
          "type": "address"
        },
        {
          "internalType": "uint256",
          "name": "amount",
          "type": "uint256"
        },
        {
          "internalType": "bytes32[]",
          "name": "proof",
          "type": "bytes32[]"
        }
      ],
      "name": "claim",
      "outputs": [],
      "stateMutability": "nonpayable",
      "type": "function"
    },
    {
      "inputs": [
        {
          "internalType": "address",
          "name": "",
          "type": "address"
        }
      ],
      "name": "claimed",
      "outputs": [
        {
          "internalType": "bool",
          "name": "",
          "type": "bool"
        }
      ],
      "stateMutability": "view",
      "type": "function"
    },
    {
      "inputs": [],
      "name": "decimals",
      "outputs": [
        {
          "internalType": "uint8",
          "name": "",
          "type": "uint8"
        }
      ],
      "stateMutability": "view",
      "type": "function"
    },
    {
      "inputs": [],
      "name": "name",
      "outputs": [
        {
          "internalType": "string",
          "name": "",
          "type": "string"
        }
      ],
      "stateMutability": "view",
      "type": "function"
    },
    {
      "inputs": [],
      "name": "owner",
      "outputs": [
        {
          "internalType": "address",
          "name": "",
          "type": "address"
        }
      ],
      "stateMutability": "view",
      "type": "function"
    },
    {
      "inputs": [],
      "name": "renounceOwnership",
      "outputs": [],
      "stateMutability": "nonpayable",
      "type": "function"
    },
    {
      "inputs": [
        {
          "internalType": "address",
          "name": "token",
          "type": "address"
        },
        {
          "internalType": "uint256",
          "name": "amount",
          "type": "uint256"
        }
      ],
      "name": "rescueToken",
      "outputs": [],
      "stateMutability": "nonpayable",
      "type": "function"
    },
    {
      "inputs": [
        {
          "internalType": "bytes32",
          "name": "_root",
          "type": "bytes32"
        }
      ],
      "name": "setMerkleRoot",
      "outputs": [],
      "stateMutability": "nonpayable",
      "type": "function"
    },
    {
      "inputs": [],
      "name": "symbol",
      "outputs": [
        {
          "internalType": "string",
          "name": "",
          "type": "string"
        }
      ],
      "stateMutability": "view",
      "type": "function"
    },
    {
      "inputs": [],
      "name": "totalSupply",
      "outputs": [
        {
          "internalType": "uint256",
          "name": "",
          "type": "uint256"
        }
      ],
      "stateMutability": "view",
      "type": "function"
    },
    {
      "inputs": [
        {
          "internalType": "address",
          "name": "to",
          "type": "address"
        },
        {
          "internalType": "uint256",
          "name": "value",
          "type": "uint256"
        }
      ],
      "name": "transfer",
      "outputs": [
        {
          "internalType": "bool",
          "name": "",
          "type": "bool"
        }
      ],
      "stateMutability": "nonpayable",
      "type": "function"
    },
    {
      "inputs": [
        {
          "internalType": "address",
          "name": "from",
          "type": "address"
        },
        {
          "internalType": "address",
          "name": "to",
          "type": "address"
        },
        {
          "internalType": "uint256",
          "name": "value",
          "type": "uint256"
        }
      ],
      "name": "transferFrom",
      "outputs": [
        {
          "internalType": "bool",
          "name": "",
          "type": "bool"
        }
      ],
      "stateMutability": "nonpayable",
      "type": "function"
    },
    {
      "inputs": [
        {
          "internalType": "address",
          "name": "newOwner",
          "type": "address"
        }
      ],
      "name": "transferOwnership",
      "outputs": [],
      "stateMutability": "nonpayable",
      "type": "function"
    }
  ],
  "bytecode": "0x608060405234801561001057600080fd5b50336040518060400160405280601a81526020017f556e6976657273616c204f7065726174696e672053797374656d00000000000081525060405180604001604052806003815260200162754f5360e81b8152508160039081610073919061032a565b506004610080828261032a565b5050506001600160a01b0381166100b257604051631e4fbdf760e01b8152600060048201526024015b60405180910390fd5b6100bb816100d5565b506100d03369d3c21bcecceda1000000610127565b61040f565b600580546001600160a01b038381166001600160a01b0319831681179093556040519116919082907f8be0079c531659141344cd1fd0a4f28419497f9722a3daafe3b4186f6b6457e090600090a35050565b6001600160a01b0382166101515760405163ec442f0560e01b8152600060048201526024016100a9565b61015d60008383610161565b5050565b6001600160a01b03831661018c57806002600082825461018191906103e8565b909155506101fe9050565b6001600160a01b038316600090815260208190526040902054818110156101df5760405163391434e360e21b81526001600160a01b038516600482015260248101829052604481018390526064016100a9565b6001600160a01b03841660009081526020819052604090209082900390555b6001600160a01b03821661021a57600280548290039055610239565b6001600160a01b03821660009081526020819052604090208054820190555b816001600160a01b0316836001600160a01b03167fddf252ad1be2c89b69c2b068fc378daa952ba7f163c4a11628f55a4df523b3ef8360405161027e91815260200190565b60405180910390a3505050565b634e487b7160e01b600052604160045260246000fd5b600181811c908216806102b557607f821691505b6020821081036102d557634e487b7160e01b600052602260045260246000fd5b50919050565b601f82111561032557806000526020600020601f840160051c810160208510156103025750805b601f840160051c820191505b81811015610322576000815560010161030e565b50505b505050565b81516001600160401b038111156103435761034361028b565b6103578161035184546102a1565b846102db565b6020601f82116001811461038b57600083156103735750848201515b600019600385901b1c1916600184901b178455610322565b600084815260208120601f198516915b828110156103bb578785015182556020948501946001909201910161039b565b50848210156103d95786840151600019600387901b60f8161c191681555b50505050600190811b01905550565b8082018082111561040957634e487b7160e01b600052601160045260246000fd5b92915050565b610c338061041e6000396000f3fe608060405234801561001057600080fd5b506004361061010b5760003560e01c806370a08231116100a257806395d89b411161007157806395d89b4114610215578063a9059cbb1461021d578063c884ef8314610230578063dd62ed3e14610253578063f2fde38b1461028c57600080fd5b806370a08231146101b6578063715018a6146101df5780637cb64759146101e75780638da5cb5b146101fa57600080fd5b8063313ce567116100de578063313ce5671461017657806333f3d628146101855780633d13f8741461019a57806351e75e8b146101ad57600080fd5b806306fdde0314610110578063095ea7b31461012e57806318160ddd1461015157806323b872dd14610163575b600080fd5b61011861029f565b60405161012591906109a5565b60405180910390f35b61014161013c366004610a0f565b610331565b6040519015158152602001610125565b6002545b604051908152602001610125565b610141610171366004610a39565b61034b565b60405160128152602001610125565b610198610193366004610a0f565b61036f565b005b6101986101a8366004610a76565b6103ed565b61015560075481565b6101556101c4366004610b03565b6001600160a01b031660009081526020819052604090205490565b6101986104f5565b6101986101f5366004610b1e565b610509565b6005546040516001600160a01b039091168152602001610125565b610118610544565b61014161022b366004610a0f565b610553565b61014161023e366004610b03565b60066020526000908152604090205460ff1681565b610155610261366004610b37565b6001600160a01b03918216600090815260016020908152604080832093909416825291909152205490565b61019861029a366004610b03565b610561565b6060600380546102ae90610b6a565b80601f01602080910402602001604051908101604052809291908181526020018280546102da90610b6a565b80156103275780601f106102fc57610100808354040283529160200191610327565b820191906000526020600020905b81548152906001019060200180831161030a57829003601f168201915b5050505050905090565b60003361033f8185856105a4565b60019150505b92915050565b6000336103598582856105b1565b61036485858561062a565b506001949350505050565b610377610689565b60405163a9059cbb60e01b8152336004820152602481018290526001600160a01b0383169063a9059cbb906044016020604051808303816000875af11580156103c4573d6000803e3d6000fd5b505050506040513d601f19601f820116820180604052508101906103e89190610ba4565b505050565b60408051606086901b6bffffffffffffffffffffffff19166020808301919091526034808301879052835180840390910181526054909201909252805191012061046a908383808060200260200160405190810160405280939291908181526020018383602002808284376000920191909152506106b692505050565b610487576040516309bde33960e01b815260040160405180910390fd5b6001600160a01b03841660009081526006602052604090205460ff16156104c15760405163494f740f60e01b815260040160405180910390fd5b6001600160a01b0384166000908152600660205260409020805460ff191660011790556104ef30858561062a565b50505050565b6104fd610689565b61050760006106cc565b565b610511610689565b600781905560405181907f42cbc405e4dbf1b691e85b9a34b08ecfcf7a9ad9078bf4d645ccfa1fac11c10b90600090a250565b6060600480546102ae90610b6a565b60003361033f81858561062a565b610569610689565b6001600160a01b03811661059857604051631e4fbdf760e01b8152600060048201526024015b60405180910390fd5b6105a1816106cc565b50565b6103e8838383600161071e565b6001600160a01b038381166000908152600160209081526040808320938616835292905220546000198110156104ef578181101561061b57604051637dc7a0d960e11b81526001600160a01b0384166004820152602481018290526044810183905260640161058f565b6104ef8484848403600061071e565b6001600160a01b03831661065457604051634b637e8f60e11b81526000600482015260240161058f565b6001600160a01b03821661067e5760405163ec442f0560e01b81526000600482015260240161058f565b6103e88383836107f3565b6005546001600160a01b031633146105075760405163118cdaa760e01b815233600482015260240161058f565b60006106c5826007548561091d565b9392505050565b600580546001600160a01b038381166001600160a01b0319831681179093556040519116919082907f8be0079c531659141344cd1fd0a4f28419497f9722a3daafe3b4186f6b6457e090600090a35050565b6001600160a01b0384166107485760405163e602df0560e01b81526000600482015260240161058f565b6001600160a01b03831661077257604051634a1406b160e11b81526000600482015260240161058f565b6001600160a01b03808516600090815260016020908152604080832093871683529290522082905580156104ef57826001600160a01b0316846001600160a01b03167f8c5be1e5ebec7d5bd14f71427d1e84f3dd0314c0f7b2291e5b200ac8c7c3b925846040516107e591815260200190565b60405180910390a350505050565b6001600160a01b03831661081e5780600260008282546108139190610bc6565b909155506108909050565b6001600160a01b038316600090815260208190526040902054818110156108715760405163391434e360e21b81526001600160a01b0385166004820152602481018290526044810183905260640161058f565b6001600160a01b03841660009081526020819052604090209082900390555b6001600160a01b0382166108ac576002805482900390556108cb565b6001600160a01b03821660009081526020819052604090208054820190555b816001600160a01b0316836001600160a01b03167fddf252ad1be2c89b69c2b068fc378daa952ba7f163c4a11628f55a4df523b3ef8360405161091091815260200190565b60405180910390a3505050565b60008261092a8584610933565b14949350505050565b600081815b845181101561096e576109648286838151811061095757610957610be7565b6020026020010151610976565b9150600101610938565b509392505050565b60008183106109925760008281526020849052604090206106c5565b60008381526020839052604090206106c5565b602081526000825180602084015260005b818110156109d357602081860181015160408684010152016109b6565b506000604082850101526040601f19601f83011684010191505092915050565b80356001600160a01b0381168114610a0a57600080fd5b919050565b60008060408385031215610a2257600080fd5b610a2b836109f3565b946020939093013593505050565b600080600060608486031215610a4e57600080fd5b610a57846109f3565b9250610a65602085016109f3565b929592945050506040919091013590565b60008060008060608587031215610a8c57600080fd5b610a95856109f3565b935060208501359250604085013567ffffffffffffffff811115610ab857600080fd5b8501601f81018713610ac957600080fd5b803567ffffffffffffffff811115610ae057600080fd5b8760208260051b8401011115610af557600080fd5b949793965060200194505050565b600060208284031215610b1557600080fd5b6106c5826109f3565b600060208284031215610b3057600080fd5b5035919050565b60008060408385031215610b4a57600080fd5b610b53836109f3565b9150610b61602084016109f3565b90509250929050565b600181811c90821680610b7e57607f821691505b602082108103610b9e57634e487b7160e01b600052602260045260246000fd5b50919050565b600060208284031215610bb657600080fd5b815180151581146106c557600080fd5b8082018082111561034557634e487b7160e01b600052601160045260246000fd5b634e487b7160e01b600052603260045260246000fdfea264697066735822122097f2c17c16d8a4444e18c82656cebeadccf0f253aa1ae4c4d885b66cecd1fe7f64736f6c634300081c0033",
  "linkReferences": {},
  "deployedLinkReferences": {}
}